:100000000C9435000C945D000C945D000C945D0024
:100010000C945D000C945D000C945D000C945D00EC
:100020000C945D000C945D000C945D000C945D00DC
:100030000C945D000C945D000C945D000C945D00CC
:100040000C94CA060C945D000C945D000C945D0049
:100050000C945D000C945D000C945D000C945D00AC
:100060000C945D000C945D00140711241FBECFEFAB
:10007000D8E0DEBFCDBF11E0A0E0B1E0E8E7F5E1F8
:1000800002C005900D92A232B107D9F722E0A2E298
:10009000B1E001C01D92A23DB207E1F710E0C5E357
:1000A000D0E004C02197FE010E94B309C433D107F8
:1000B000C9F70E9424070C94BA0A0C940000EF922E
:1000C000FF920F931F93CF93DF93EC019091230145
:1000D0009F5F292F27702093230190FF02C090E893
:1000E00001C090E021FD9064247009F0906220E14D
:1000F000290FFE013C967E018FE0E80EF11C00E026
:1001000011E06191662331F070E0C8010E94380966
:100110006F5F01C060E0DF0114976C93322F369F50
:10012000030E30E0311D1124CF010797311103C0B8
:10013000EC01188203C03150EC013883662311F0C2
:1001400061506C93EE15FF05E1F6DF91CF911F91A1
:100150000F91FF90EF90089580E991E00895569AED
:1001600008950F931F93CF93DF93CDB7DEB76297B8
:100170000FB6F894DEBF0FBECDBF8C01F901DC01D4
:100180001C968C917A8369835C834B835E834D8359
:1001900090819D8791819E8792819F87813029F4EC
:1001A000CE0101960E945F0006C01C861B861A863F
:1001B000198618861F8283E0888B1A8A198AD801CB
:1001C000ED91FC910484F585E02DBE016F5F7F4FBA
:1001D000C801099562960FB6F894DEBF0FBECDBF79
:1001E000DF91CF911F910F9108950F931F93CF939C
:1001F000DF93CDB7DEB762970FB6F894DEBF0FBEC0
:10020000CDBF8C01F901DC011C968C917A83698346
:100210005C834B835E834D8390819D8791819E8714
:1002200092819F87813029F4CE0101960E945F0060
:1002300006C01C861B861A86198618861F82188A95
:100240001A8A198AD801ED91FC910484F585E02D74
:10025000BE016F5F7F4FC801099562960FB6F89493
:10026000DEBF0FBECDBFDF91CF911F910F910895DB
:1002700080E090E00895FC01858596850895CF93F0
:10028000DF9300D000D000D0CDB7DEB7AB011C8229
:100290001D821E82DC01ED91FC910190F081E02D28
:1002A00019821A821B829E012F5F3F4FBE016C5F35
:1002B0007F4F099526960FB6F894DEBF0FBECDBFCF
:1002C000DF91CF9108954F925F926F927F928F92BC
:1002D000AF92BF92CF92EF92FF920F931F93CF9363
:1002E000DF933C01EB010E941405F301278530895F
:1002F000621B730B6A307105B0F3F894E881F981E1
:100300005BB150648BB18F7B8BB96A859F81262F3F
:10031000291B922F2F83BF844A805B807D85FC84BC
:10032000EE847F5FF394E3943E814885A984CB8477
:100330001181D20120E0C32F022F322F31811127EA
:1003400088943111390F08F43FEF9195889470FD2E
:10035000130F1795889471FD130F1795889472FDEC
:10036000130F1795889473FD130F1795889474FDD8
:10037000130F1795889475FD130F1795889476FDC4
:10038000130F1795889477FD130F17958894232FD3
:100390007111212F960F122F002C5BB900C017FF8F
:1003A0008BB930812227889400C000C0002C8BB903
:1003B00031113C0F00C0002C5BB900C016FF8BB997
:1003C00008F43FEFC195889400C000C0002C8BB9A1
:1003D000F0FC230F00C0002C5BB900C015FF8BB9E7
:1003E00027958894F1FC230F00C000C0002C8BB926
:1003F0002795889400C0002C5BB900C014FF8BB90E
:10040000F2FC230F2795889400C000C0002C8BB904
:10041000F3FC230F00C0002C5BB900C013FF8BB9A5
:1004200027958894F4FC230F00C000C0002C8BB9E2
:100430002795889400C0002C5BB900C012FF8BB9CF
:10044000F5FC230F2795889400C000C0002C8BB9C1
:10045000F6FC230F00C0002C5BB900C011FF8BB964
:1004600027958894F7FC230F00C000C0002C8BB99F
:100470002795889400C0002C5BB900C010FF8BB991
:10048000132FF110122FCA0D00C000C0002C8BB921
:1004900000C000C0002C5BB900C017FF8BB93281CF
:1004A0002227889400C000C0002C8BB93111340F72
:1004B00000C0002C5BB900C016FF8BB908F43FEFF9
:1004C000EB0DF11D00C000C0002C8BB9E0FC230F28
:1004D00000C0002C5BB900C015FF8BB9279588942C
:1004E000E1FC230F00C000C0002C8BB92795889435
:1004F00000C0002C5BB900C014FF8BB9E2FC230FD5
:100500002795889400C000C0002C8BB9E3FC230F12
:1005100000C0002C5BB900C013FF8BB927958894ED
:10052000E4FC230F00C000C0002C8BB927958894F1
:1005300000C0002C5BB900C012FF8BB9E5FC230F93
:100540002795889400C000C0002C8BB9E6FC230FCF
:1005500000C0002C5BB900C011FF8BB927958894AF
:10056000E7FC230F00C000C0002C8BB927958894AE
:1005700000C0002C5BB900C010FF8BB9132FE11035
:10058000122F419500C000C0002C8BB94C0D00C04B
:1005900000C05BB900C017FF8BB931812227889456
:1005A00000C000C0002C8BB93111390F00C0002CE5
:1005B0005BB900C016FF8BB908F43FEF91958894A2
:1005C00000C000C0002C8BB970FD230F00C0002CB0
:1005D0005BB900C015FF8BB92795889471FD230F77
:1005E00000C000C0002C8BB92795889400C0002C57
:1005F0005BB900C014FF8BB972FD230F2795889457
:1006000000C000C0002C8BB973FD230F00C0002C6C
:100610005BB900C013FF8BB92795889474FD230F35
:1006200000C000C0002C8BB92795889400C0002C16
:100630005BB900C012FF8BB975FD230F2795889415
:1006400000C000C0002C8BB976FD230F00C0002C29
:100650005BB900C011FF8BB92795889477FD230FF4
:1006600000C000C0002C8BB92795889400C0002CD6
:100670005BB900C010FF8BB9132F7111122F960FA9
:1006800000C000C0002C8BB9119709F086CE20EE77
:1006900031E0D2010E948D09DC01CB01F4E0B69576
:1006A000A79597958795FA95D1F720E030E0A901B5
:1006B0006AE9469E412D569E400D511D1124840F1E
:1006C000951FA11DB11D893E43E09407A105B10509
:1006D00088F1885E9340A109B10942E0B695A795DB
:1006E000979587954A95D1F747E0849F212D949F50
:1006F000200D311D11246091220170E0860F971F9B
:10070000820F931F40912401509125016091260191
:1007100070912701292F3327420F531F611D711D2F
:100720004093240150932501609326017093270183
:100730008093220178940E941405F301708B6787DF
:10074000DF91CF911F910F91FF90EF90CF90BF90CD
:10075000AF908F907F906F905F904F900895DC01E5
:10076000FB014C9111965C91119712967C91342F5C
:100770003F71330F330F832F880F35E5282F239FC9
:10078000020E20E0211D1124642F6074942F9072BA
:1007900047FD21C061110BC0911104C0822F8095CB
:1007A000422F11C045E5420F30E02BEA33C09111D2
:1007B0000DC0382F4AEA349F030E30E0311D11245A
:1007C0008BEA831B420F282F30E024C080E0422FA9
:1007D0004095322F0EC0611111C091110CC0382FFD
:1007E0002AEA329F030E30E0311D11244BEA431BED
:1007F0003B5A20E00FC0322F30950BC0911104C03E
:1008000085E5820F3BEA03C08AEA820F90E0321B43
:10081000282F40E05F3F11F15523E9F0222321F01A
:10082000259F020E20E0211D442321F0459F040E48
:1008300040E0411D332321F0359F030E30E0311D90
:1008400011245095559F050E50E0511D1124250F80
:10085000450F350F03C03FEF4FEF2FEF7F3F09F4F8
:1008600020C050E0772321F0779F512D09F05F5F82
:100870005523A1F0222321F0259F020E20E0211D07
:10088000442321F0459F040E40E0411D332321F015
:10089000359F030E30E0311D112403C030E040E0ED
:1008A00020E020834183328308954F925F926F92BC
:1008B0007F92AF92BF92CF92DF92EF92FF920F930F
:1008C0001F93CF93DF93FC01108211821282442385
:1008D000B9F18B01075F1F4F5C01EB012C96442E91
:1008E000512C612C712CD8011397CC90D8012D91EB
:1008F0008D01CC20F9F02223E9F0822F90E0A0E0D6
:10090000B0E09C01AD012F5F3F4F4F4F5F4FC301E0
:10091000B2010E9428099B01AC01D12CE12CF12CE1
:10092000C701B6016F5F7F4F8F4F9F4F0E9428090D
:10093000D5018C93BFEFAB1ABB0A0C171D0799F6B4
:10094000CF01DF91CF911F910F91FF90EF90DF903A
:10095000CF90BF90AF907F906F905F904F90089531
:10096000CF92DF92EF92FF920F931F938091D0026C
:100970009091D1029C012F5F3F4F3093D102209381
:10098000D00249970CF447C08FB7F8940091240126
:100990001091250120912601309127018FBFE09110
:1009A000D002F091D10288EE93E0E89FB001E99F78
:1009B000700DF89F700D1124072E000C880B990BF9
:1009C000C090CC02D090CD02E090CE02F090CF0249
:1009D000A90198012C193D094E095F090E944C0993
:1009E00030932A01209329011092D1021092D00253
:1009F0002FB7F8948091240190912501A0912601B0
:100A0000B09127012FBF8093CC029093CD02A09389
:100A1000CE02B093CF021F910F91FF90EF90DF9025
:100A2000CF9008950E94B50A3FB7F894809136019F
:100A300090913701A0913801B091390126B5A89B5A
:100A400005C02F3F19F00196A11DB11D3FBFBA2F60
:100A5000A92F982F8827820F911DA11DB11DBC01C0
:100A6000CD0142E0660F771F881F991F4A95D1F785
:100A70000895AF92BF92CF92DF92EF92FF920F93C1
:100A80001F93CF93DF9300D01F92CDB7DEB76C01D9
:100A9000F62E80912B0190912C01A0912D01B09107
:100AA0002E01892B8A2B8B2BE9F00E9414050091D3
:100AB000C8021091C9022091CA023091CB02DC0118
:100AC000CB01801B910BA20BB30B00912B0110915A
:100AD0002C0120912D0130912E0180179107A20742
:100AE000B307B8F20E9414056093C8027093C9025C
:100AF0008093CA029093CB02E0913301F0913401CC
:100B0000309759F040912F0150913001609131019F
:100B1000709132018F2D0995F82E0091C602109127
:100B2000C7020115110559F1D8011C96EC901C97CC
:100B30008091290190912A018436910510F41C9628
:100B40001C92D801ED91FC91A080B1804F2DB8018D
:100B5000CE0101960E945504F801458556859E01F7
:100B60002F5F3F4FB601C801F5010995D8011C96CA
:100B7000EC921C9714960D911C911597D2CF0E9460
:100B8000B0040F900F900F90DF91CF911F910F91B4
:100B9000FF90EF90DF90CF90BF90AF9008958F922D
:100BA0009F92AF92BF92CF92DF92EF92FF926B0132
:100BB0007C010E9414054B015C01C114D104E104C5
:100BC000F104F1F00E941405DC01CB0188199909A8
:100BD000AA09BB09883E9340A105B10570F321E045
:100BE000C21AD108E108F10888EE880E83E0981E49
:100BF000A11CB11CC114D104E104F10419F7DDCF2B
:100C0000FF90EF90DF90CF90BF90AF909F908F902C
:100C100008957F928F929F92AF92BF92CF92DF9270
:100C2000EF92FF920F931F93CF93DF9300D01F9209
:100C3000CDB7DEB75C018EE5E82E81E0F82E9BE0B3
:100C4000C92E20E030E0D5018C91F701E20FF31FAF
:100C5000808311968C911197818312968C91828357
:100C60002D5F3F4F2E31310571F7D09028018091D3
:100C70002B0190912C01A0912D01B0912E01892B77
:100C80008A2B8B2BE9F00E9414050091C802109169
:100C9000C9022091CA023091CB02DC01CB01801B3A
:100CA000910BA20BB30B00912B0110912C01209101
:100CB0002D0130912E0180179107A207B307B8F2DA
:100CC0000E9414056093C8027093C9028093CA02FF
:100CD0009093CB02E0913301F0913401309759F0B9
:100CE00040912F015091300160913101709132019A
:100CF0008D2D0995D82E0091C6021091C7020115BD
:100D0000110549F1F80174848091290190912A011B
:100D10008436910508F41486D801ED91FC91828007
:100D200093804D2DB801CE0101960E945504F80123
:100D300045855685628173819E012F5F3F4FC801B3
:100D4000F4010995D8011C967C921C9714960D917C
:100D50001C911597D4CF0E94B0046DE070E080E044
:100D600090E00E94CF05CA94B1E2EB0EF11CC110D5
:100D700068CF0F900F900F90DF91CF911F910F913F
:100D8000FF90EF90DF90CF90BF90AF909F908F90AB
:100D90007F9008951F920F920FB60F9211242F93F8
:100DA0003F938F939F93AF93BF9380912401909132
:100DB0002501A0912601B09127013091350123E052
:100DC000230F2D3720F40196A11DB11D05C026E883
:100DD000230F0296A11DB11D20933501809324019C
:100DE00090932501A0932601B093270180913601AD
:100DF00090913701A0913801B09139010196A11D60
:100E0000B11D8093360190933701A0933801B093C0
:100E10003901BF91AF919F918F913F912F910F9089
:100E20000FBE0F901F901895E8E2F1E08FEF8083DE
:100E300012821182148613868FEF9FEFDC01878365
:100E40009087A187B2870895CF93DF9300D000D019
:100E500000D0CDB7DEB7789484B5826084BD84B508
:100E6000816084BD85B5826085BD85B5816085BDA5
:100E700080916E00816080936E001092810080915D
:100E800081008260809381008091810081608093E5
:100E90008100809180008160809380008091B1000A
:100EA00084608093B1008091B00081608093B00035
:100EB00080917A00846080937A0080917A008260C9
:100EC00080937A0080917A00816080937A0080918B
:100ED0007A00806880937A001092C10068EB7BE012
:100EE00080E090E00E94CF0580914D01811145C0C6
:100EF00010923F0110923E018FEF80934201809348
:100F0000430180934401809345018093460180937F
:100F1000470181E08093480110924A0110924901F3
:100F200010924101109240018091C6029091C70237
:100F3000892B31F48CE391E09093C7028093C60231
:100F4000E0913A01F0913B01309721F08CE391E080
:100F5000958384838CE391E090933B0180933A01E5
:100F600010924C0110924B0184E191E090933D016D
:100F700080933C0181E080934D01E0913C01F09130
:100F80003D010480F581E02D8CE391E009958EE52B
:100F900091E090933F0180933E0188E790E0909329
:100FA0004A0180934901E0913C01F0913D010284A6
:100FB000F385E02D8CE391E00995009729F19C01E0
:100FC00040E050E060E472E48FE090E00E946E093F
:100FD000722F632F00912B0110912C0120912D0174
:100FE00030912E01872F962FDA0180179107A207E3
:100FF000B30710F4D901C80180932B0190932C0101
:10100000A0932D01B0932E018FEF8093420190EBBE
:101010009093430190EF90934401809328011FEF38
:1010200080E0282E80E0382E97ED492E93EA592E45
:1010300090E3692E91E4792EC12CD12C20E8E22E88
:101040002FE3F22E33E3832E982C3BECA32E31E4D6
:10105000B32E01E080915D01833009F47DC030F44E
:10106000813049F1823009F451C006C0843009F45E
:1010700099C0853009F4CFC019821A821B82609111
:101080002801CE0101960E94390510925C01109250
:101090005B0110935A0100935901C0925501D092FF
:1010A0005601E0925701F092580180915D018F5FE7
:1010B00080935D01A0C080935C01C0925501D092E5
:1010C0005601E0925701F09258019091590119167A
:1010D0008CF490915A0120915B0129839A838B8330
:1010E000BE016C5F7F4FCE0101960E94AF03CE011F
:1010F000049605C019821A821B82CE0101960E94B5
:10110000090690915D018091590182C0C0925501FC
:10111000D0925601E0925701F092580180915C0103
:1011200090915A0120915B0129839A838B83BE01A0
:101130006C5F7F4FCE0101960E94AF036091280142
:10114000CE0104960E9439058091590190915C016D
:10115000980F90935C0158C04092550150925601EF
:10116000609257017092580180915A0190915B01F1
:1011700099838A831B83BE016C5F7F4FCE010196EA
:101180000E94AF0360912801CE0104960E943905A8
:101190008091590190915B01980F90935B01983178
:1011A000D0F134C08092550190925601A09257011F
:1011B000B092580180915A0190915B0199838A8382
:1011C0001B83BE016C5F7F4FCE0101960E94AF036F
:1011D00060912801CE0104960E9439058091590141
:1011E00090915A01981B90935A0118165CF4963FFF
:1011F00090F41093590168EE73E080E090E00E9453
:10120000CF0509C0882339F09F3F29F490915D01F3
:10121000890F80935D0180915D01813091F020E024
:1012200030E040E551E460915501709156018091A4
:101230005701909158010E94200A0E94C8090E94FB
:10124000CF052114310409F405CF0E94000001CF1D
:10125000DB018F939F930E949409BF91AF91A29F4E
:10126000800D911DA39F900DB29F900D11240895A4
:1012700097FB072E16F4009407D077FD09D00E9443
:101280009F0907FC05D03EF4909581959F4F0895E6
:10129000709561957F4F0895A1E21A2EAA1BBB1B82
:1012A000FD010DC0AA1FBB1FEE1FFF1FA217B30732
:1012B000E407F50720F0A21BB30BE40BF50B661F48
:1012C000771F881F991F1A9469F76095709580950C
:1012D00090959B01AC01BD01CF010895052E97FBB0
:1012E0001EF400940E94850957FD07D00E944C0906
:1012F00007FC03D04EF40C94850950954095309529
:1013000021953F4F4F4F5F4F089590958095709571
:1013100061957F4F8F4F9F4F08950E94B909B7FF86
:101320000895821B930B08950E94B909A59F900D03
:10133000B49F900DA49F800D911D11240895AA1BA8
:10134000BB1B51E107C0AA1FBB1FA617B70710F0B0
:10135000A61BB70B881F991F5A95A9F780959095E2
:10136000BC01CD010895EE0FFF1F0590F491E02D13
:101370000994A29FB001B39FC001A39F700D811D6E
:101380001124911DB29F700D811D1124911D08958E
:101390000E94FF0988F09F5798F0B92F9927B751FD
:1013A000B0F0E1F0660F771F881F991F1AF0BA9509
:1013B000C9F714C0B13091F00E94190AB1E0089544
:1013C0000C94190A672F782F8827B85F39F0B93F36
:1013D000CCF3869577956795B395D9F73EF49095BC
:1013E0008095709561957F4F8F4F9F4F089557FD62
:1013F0009058440F551F59F05F3F71F04795880F83
:1014000097FB991F61F09F3F79F087950895121619
:1014100013061406551FF2CF4695F1DF08C01616C5
:1014200017061806991FF1CF869571056105089476
:101430000895E894BB2766277727CB0197F908958D
:101440000E94330A0C94A40A0E94960A38F00E9463
:101450009D0A20F0952311F00C948D0A0C94930AA8
:1014600011240C941A0A0E94F70970F3959FC1F396
:10147000950F50E0551F629FF001729FBB27F00D42
:10148000B11D639FAA27F00DB11DAA1F649F662797
:10149000B00DA11D661F829F2227B00DA11D621FE6
:1014A000739FB00DA11D621F839FA00D611D221FA0
:1014B000749F3327A00D611D231F849F600D211D84
:1014C000822F762F6A2F11249F5750409AF0F1F007
:1014D00088234AF0EE0FFF1FBB1F661F771F881F70
:1014E00091505040A9F79E3F510580F00C948D0A11
:1014F0000C941A0A5F3FE4F3983ED4F386957795EF
:101500006795B795F795E7959F5FC1F7FE2B880F15
:10151000911D9695879597F9089597F99F6780E8AB
:1015200070E060E008959FEF80EC089500240A9435
:101530001616170618060906089500240A941216AE
:101540001306140605060895092E0394000C11F4E1
:10155000882352F0BB0F40F4BF2B11F460FF04C08E
:101560006F5F7F4F8F4F9F4F089581E090E0F89419
:081570000C94BA0AF894FFCFB5
:10157800000000001205120512053F013B01380169
:1015880000000000F500B100AF003F013B01AC00D6
:021598006301ED
:00000001FF
