:100000000C9435000C945D000C945D000C945D0024
:100010000C945D000C945D000C945D000C945D00EC
:100020000C945D000C945D000C945D000C945D00DC
:100030000C945D000C945D000C945D000C945D00CC
:100040000C94AF030C945D000C9475060C944F0651
:100050000C945D000C945D000C945D000C945D00AC
:100060000C945D000C945D009D0711241FBECFEF22
:10007000D8E0DEBFCDBF11E0A0E0B1E0ECEFF6E1EB
:1000800002C005900D92A834B107D9F723E0A8E487
:10009000B1E001C01D92A63CB207E1F710E0C5E354
:1000A000D0E004C02197FE010E94250BC433D10784
:1000B000C9F70E94D9070C947C0B0C940000EF92B6
:1000C000FF920F931F93CF93DF93EC01909149011F
:1000D0009F5F292F27702093490190FF02C090E86D
:1000E00001C090E021FD9064247009F0906220E14D
:1000F000290FFE013C967E018FE0E80EF11C00E026
:1001000011E06191662331F070E0C8010E94D70AC6
:100110006F5F01C060E0DF0114976C93322F369F50
:10012000030E30E0311D1124CF010797311103C0B8
:10013000EC01188203C03150EC013883662311F0C2
:1001400061506C93EE15FF05E1F6DF91CF911F91A1
:100150000F91FF90EF90089580E991E00895569AED
:1001600008950F931F93CF93DF93CDB7DEB76297B8
:100170000FB6F894DEBF0FBECDBF8C01F901DC01D4
:100180001C968C917A8369835C834B835E834D8359
:1001900090819D8791819E8792819F87813029F4EC
:1001A000CE0101960E945F0006C01C861B861A863F
:1001B000198618861F8283E0888B1A8A198AD801CB
:1001C000ED91FC910484F585E02DBE016F5F7F4FBA
:1001D000C801099562960FB6F894DEBF0FBECDBF79
:1001E000DF91CF911F910F9108950F931F93CF939C
:1001F000DF93CDB7DEB762970FB6F894DEBF0FBEC0
:10020000CDBF8C01F901DC011C968C917A83698346
:100210005C834B835E834D8390819D8791819E8714
:1002200092819F87813029F4CE0101960E945F0060
:1002300006C01C861B861A86198618861F82188A95
:100240001A8A198AD801ED91FC910484F585E02D74
:10025000BE016F5F7F4FC801099562960FB6F89493
:10026000DEBF0FBECDBFDF91CF911F910F910895DB
:1002700080E090E00895FC01858596850895CF93F0
:10028000DF9300D000D000D0CDB7DEB7AB011C8229
:100290001D821E82DC01ED91FC910190F081E02D28
:1002A00019821A821B829E012F5F3F4FBE016C5F35
:1002B0007F4F099526960FB6F894DEBF0FBECDBFCF
:1002C000DF91CF9108954F925F926F927F928F92BC
:1002D000AF92BF92CF92EF92FF920F931F93CF9363
:1002E000DF933C01EB010E94A706F30127853089CB
:1002F000621B730B6A307105B0F3F894E881F981E1
:100300005BB150648BB18F7B8BB96A859F81262F3F
:10031000291B922F2F83BF844A805B807D85FC84BC
:10032000EE847F5FF394E3943E814885A984CB8477
:100330001181D20120E0C32F022F322F31811127EA
:1003400088943111390F08F43FEF9195889470FD2E
:10035000130F1795889471FD130F1795889472FDEC
:10036000130F1795889473FD130F1795889474FDD8
:10037000130F1795889475FD130F1795889476FDC4
:10038000130F1795889477FD130F17958894232FD3
:100390007111212F960F122F002C5BB900C017FF8F
:1003A0008BB930812227889400C000C0002C8BB903
:1003B00031113C0F00C0002C5BB900C016FF8BB997
:1003C00008F43FEFC195889400C000C0002C8BB9A1
:1003D000F0FC230F00C0002C5BB900C015FF8BB9E7
:1003E00027958894F1FC230F00C000C0002C8BB926
:1003F0002795889400C0002C5BB900C014FF8BB90E
:10040000F2FC230F2795889400C000C0002C8BB904
:10041000F3FC230F00C0002C5BB900C013FF8BB9A5
:1004200027958894F4FC230F00C000C0002C8BB9E2
:100430002795889400C0002C5BB900C012FF8BB9CF
:10044000F5FC230F2795889400C000C0002C8BB9C1
:10045000F6FC230F00C0002C5BB900C011FF8BB964
:1004600027958894F7FC230F00C000C0002C8BB99F
:100470002795889400C0002C5BB900C010FF8BB991
:10048000132FF110122FCA0D00C000C0002C8BB921
:1004900000C000C0002C5BB900C017FF8BB93281CF
:1004A0002227889400C000C0002C8BB93111340F72
:1004B00000C0002C5BB900C016FF8BB908F43FEFF9
:1004C000EB0DF11D00C000C0002C8BB9E0FC230F28
:1004D00000C0002C5BB900C015FF8BB9279588942C
:1004E000E1FC230F00C000C0002C8BB92795889435
:1004F00000C0002C5BB900C014FF8BB9E2FC230FD5
:100500002795889400C000C0002C8BB9E3FC230F12
:1005100000C0002C5BB900C013FF8BB927958894ED
:10052000E4FC230F00C000C0002C8BB927958894F1
:1005300000C0002C5BB900C012FF8BB9E5FC230F93
:100540002795889400C000C0002C8BB9E6FC230FCF
:1005500000C0002C5BB900C011FF8BB927958894AF
:10056000E7FC230F00C000C0002C8BB927958894AE
:1005700000C0002C5BB900C010FF8BB9132FE11035
:10058000122F419500C000C0002C8BB94C0D00C04B
:1005900000C05BB900C017FF8BB931812227889456
:1005A00000C000C0002C8BB93111390F00C0002CE5
:1005B0005BB900C016FF8BB908F43FEF91958894A2
:1005C00000C000C0002C8BB970FD230F00C0002CB0
:1005D0005BB900C015FF8BB92795889471FD230F77
:1005E00000C000C0002C8BB92795889400C0002C57
:1005F0005BB900C014FF8BB972FD230F2795889457
:1006000000C000C0002C8BB973FD230F00C0002C6C
:100610005BB900C013FF8BB92795889474FD230F35
:1006200000C000C0002C8BB92795889400C0002C16
:100630005BB900C012FF8BB975FD230F2795889415
:1006400000C000C0002C8BB976FD230F00C0002C29
:100650005BB900C011FF8BB92795889477FD230FF4
:1006600000C000C0002C8BB92795889400C0002CD6
:100670005BB900C010FF8BB9132F7111122F960FA9
:1006800000C000C0002C8BB9119709F086CE20EE77
:1006900031E0D2010E940A0BDC01CB01F4E0B695F7
:1006A000A79597958795FA95D1F720E030E0A901B5
:1006B0006AE9469E412D569E400D511D1124840F1E
:1006C000951FA11DB11D893E43E09407A105B10509
:1006D00088F1885E9340A109B10942E0B695A795DB
:1006E000979587954A95D1F747E0849F212D949F50
:1006F000200D311D11246091480170E0860F971F75
:10070000820F931F40914B0150914C0160914D011C
:1007100070914E01292F3327420F531F611D711D08
:1007200040934B0150934C0160934D0170934E01E7
:100730008093480178940E94A706F301708B678725
:10074000DF91CF911F910F91FF90EF90CF90BF90CD
:10075000AF908F907F906F905F904F9008951F9211
:100760000F920FB60F9211242F933F938F939F9365
:10077000AF93BF9380914B0190914C01A0914D019B
:10078000B0914E0130914A0123E0230F2D3720F420
:100790000196A11DB11D05C026E8230F0296A11DDB
:1007A000B11D20934A0180934B0190934C01A0937B
:1007B0004D01B0934E0180914F0190915001A09155
:1007C0005101B09152010196A11DB11D80934F01BD
:1007D00090935001A0935101B0935201BF91AF91FA
:1007E0009F918F913F912F910F900FBE0F901F906F
:1007F0001895DC01FB014C9111965C9111971296B2
:100800007C91342F3F71330F330F832F880F35E5E1
:10081000282F239F020E20E0211D1124642F6074D5
:10082000942F907247FD21C061110BC0911104C03B
:10083000822F8095422F11C045E5420F30E02BEA10
:1008400033C091110DC0382F4AEA349F030E30E0B7
:10085000311D11248BEA831B420F282F30E024C066
:1008600080E0422F4095322F0EC0611111C09111CE
:100870000CC0382F2AEA329F030E30E0311D1124BC
:100880004BEA431B3B5A20E00FC0322F30950BC080
:10089000911104C085E5820F3BEA03C08AEA820F0A
:1008A00090E0321B282F40E05F3F11F15523E9F023
:1008B000222321F0259F020E20E0211D442321F058
:1008C000459F040E40E0411D332321F0359F030E68
:1008D00030E0311D11245095559F050E50E0511DFB
:1008E0001124250F450F350F03C03FEF4FEF2FEFBA
:1008F0007F3F09F420C050E0772321F0779F512DEE
:1009000009F05F5F5523A1F0222321F0259F020EFD
:1009100020E0211D442321F0459F040E40E0411DAD
:10092000332321F0359F030E30E0311D112403C025
:1009300030E040E020E020834183328308954F92ED
:100940005F926F927F92AF92BF92CF92DF92EF92BF
:10095000FF920F931F93CF93DF93FC0110821182BC
:1009600012824423B9F18B01075F1F4F5C01EB0139
:100970002C96442E512C612C712CD8011397CC90BD
:10098000D8012D918D01CC20F9F02223E9F0822F9E
:1009900090E0A0E0B0E09C01AD012F5F3F4F4F4FD2
:1009A0005F4FC301B2010E94300B9B01AC01D12CFF
:1009B000E12CF12CC701B6016F5F7F4F8F4F9F4F26
:1009C0000E94300BD5018C93BFEFAB1ABB0A0C17FA
:1009D0001D0799F6CF01DF91CF911F910F91FF90E5
:1009E000EF90DF90CF90BF90AF907F906F905F902F
:1009F0004F900895CF92DF92EF92FF920F931F9343
:100A0000CF93DF936C017A018B01C0E0D0E0CE156B
:100A1000DF0589F0D8016D918D01D601ED91FC9132
:100A20000190F081E02DC6010995892B11F47E011A
:100A300002C02196ECCFC701DF91CF911F910F919A
:100A4000FF90EF90DF90CF900895FC01918D828D03
:100A5000981761F0828DDF01A80FB11D5D968C9112
:100A6000928D9F5F9F73928F90E008958FEF9FEF1D
:100A70000895FC01918D828D981731F0828DE80FD9
:100A8000F11D858D90E008958FEF9FEF0895FC0193
:100A9000918D228D892F90E0805C9F4F821B910960
:100AA0008F73992708958CE193E00E94470521E018
:100AB000892B09F420E0822F0895FC01848DDF0149
:100AC000A80FB11DA35ABF4F2C91848D90E00196C1
:100AD0008F739927848FA689B7892C93A089B189B0
:100AE0008C9180648C93938D848D981306C00288BA
:100AF000F389E02D80818F7D80830895EF92FF92AE
:100B00000F931F93CF93DF93EC0181E0888F9B8D30
:100B10008C8D981305C0E889F989808185FD24C0F2
:100B2000F62E0B8D10E00F5F1F4F0F731127E02E75
:100B30008C8DE8120CC00FB607FCFACFE889F98952
:100B4000808185FFF5CFCE010E945D05F1CF8B8DB1
:100B5000FE01E80FF11DE35AFF4FF0820B8FEA8987
:100B6000FB898081806207C0EE89FF896083E88904
:100B7000F98980818064808381E090E0DF91CF916A
:100B80001F910F91FF90EF900895CF93DF93EC01A9
:100B9000888D8823C9F0EA89FB89808185FD05C09D
:100BA000A889B9898C9186FD0FC00FB607FCF5CFD7
:100BB000808185FFF2CFA889B9898C9185FFEDCF1F
:100BC000CE010E945D05E7CFDF91CF91089580E0CF
:100BD00090E0892B29F00E94530581110C940000AC
:100BE00008952FB7F89460914B0170914C0180915A
:100BF0004D0190914E012FBF0895CF92DF92EF9259
:100C0000FF920F931F93CF93DF9380911A039091DC
:100C10001B03EC012196D0931B03C0931A03499741
:100C20009CF10E94F1058B019C0188EE93E0C89F26
:100C3000B001C99F700DD89F700D1124072E000CB4
:100C4000880B990BC0901603D0901703E0901803FF
:100C5000F0901903A90198012C193D094E095F096B
:100C60000E94400B3093BB032093BA0310921B03E6
:100C700010921A030E94F1056093160370931703F4
:100C80008093180390931903DF91CF911F910F91D7
:100C9000FF90EF90DF90CF9008950E942B0B1F9252
:100CA0000F920FB60F9211242F933F934F935F93A0
:100CB0006F937F938F939F93AF93BF93EF93FF9324
:100CC0008CE193E00E945D05FF91EF91BF91AF91A0
:100CD0009F918F917F916F915F914F913F912F9154
:100CE0000F900FBE0F901F9018951F920F920FB686
:100CF0000F9211242F938F939F93EF93FF93E09183
:100D00002C03F0912D038081E0913203F0913303A5
:100D100082FD12C09081809135038F5F8F73209187
:100D20003603821751F0E0913503F0E0E45EFC4FAA
:100D3000958F8093350301C08081FF91EF919F9142
:100D40008F912F910F900FBE0F901F9018953FB766
:100D5000F89480914F0190915001A0915101B09170
:100D6000520126B5A89B05C02F3F19F00196A11D81
:100D7000B11D3FBFBA2FA92F982F8827820F911D31
:100D8000A11DB11DBC01CD0142E0660F771F881F78
:100D9000991F4A95D1F70895AF92BF92CF92DF92F3
:100DA000EF92FF920F931F93CF93DF9300D01F9288
:100DB000CDB7DEB76C01F090B9038091BC03909180
:100DC000BD03A091BE03B091BF03892B8A2B8B2B4F
:100DD000E9F00E94A70600911203109113032091DD
:100DE000140330911503DC01CB01801B910BA20B86
:100DF000B30B0091BC031091BD032091BE03309151
:100E0000BF0380179107A207B307B8F20E94A70695
:100E1000609312037093130380931403909315034C
:100E2000E091C403F091C503309759F04091C0039D
:100E30005091C1036091C2037091C3038F2D099536
:100E4000F82E00911003109111030115110559F1AD
:100E5000D8011C96EC901C978091BA039091BB032B
:100E60008436910510F41C961C92D801ED91FC91EA
:100E7000A080B1804F2DB801CE0101960E949F0441
:100E8000F801458556859E012F5F3F4FB601C80189
:100E9000F5010995D8011C96EC921C9714960D91BA
:100EA0001C911597D2CF0E94FD050F900F900F90C7
:100EB000DF91CF911F910F91FF90EF90DF90CF9036
:100EC000BF90AF9008958F929F92AF92BF92CF92B2
:100ED000DF92EF92FF926B017C010E94A7064B010B
:100EE0005C01C114D104E104F104F1F00E94A706F1
:100EF000DC01CB0188199909AA09BB09883E9340F6
:100F0000A105B10570F321E0C21AD108E108F1088A
:100F100088EE880E83E0981EA11CB11CC114D10478
:100F2000E104F10419F7DDCFFF90EF90DF90CF904F
:100F3000BF90AF909F908F900895ECE1F3E0138203
:100F4000128288EE93E0A0E0B0E084839583A683CC
:100F5000B78389E291E09183808385EC90E0958767
:100F6000848784EC90E09787868780EC90E0918B73
:100F7000808B81EC90E0938B828B82EC90E0958B60
:100F8000848B86EC90E0978B868B118E128E138E5D
:100F9000148EE9EBF3E08FEF8083128211821486C6
:100FA00013868FEF9FEFDC0187839087A187B2873D
:100FB0000895CF93DF9300D000D000D0CDB7DEB737
:100FC000789484B5826084BD84B5816084BD85B524
:100FD000826085BD85B5816085BD80916E00816030
:100FE00080936E00109281008091810082608093D6
:100FF00081008091810081608093810080918000D8
:101000008160809380008091B10084608093B10002
:101010008091B00081608093B00080917A008460FC
:1010200080937A0080917A00826080937A00809128
:101030007A00816080937A0080917A008068809342
:101040007A001092C1001092A1011092A201109298
:10105000A3011092A40110926F01109270011092DE
:1010600071011092720160ED77E080E090E00E94E3
:1010700063078CE193E09093A00180939F01E0913E
:101080002C03F0912D0382E08083E0912803F091FE
:1010900029031082E0912A03F0912B0380E18083E1
:1010A00010923403E0913003F091310386E08083A5
:1010B000E0912E03F0912F03808180618083E09185
:1010C0002E03F0912F03808188608083E0912E03AE
:1010D000F0912F03808180688083E0912E03F0914E
:1010E0002F0380818F7D80830E94F10500916F0125
:1010F000109170012091710130917201DC01CB01DE
:10110000801B910BA20BB30BC297A105B10538F45C
:1011100063E070E080E090E00E946307E5CF0E940A
:10112000F10560936F01709370018093710190934A
:10113000720180919F019091A001DC01ED91FC91E1
:101140000280F381E02D41E150E065E371E0099513
:101150006AE070E080E090E00E94630711E0109385
:10116000730168EB7BE080E090E00E946307809170
:101170006601811144C010925801109257018FEFFF
:1011800080935B0180935C0180935D0180935E019D
:1011900080935F018093600110936101109263015D
:1011A0001092620110925A0110925901809110031D
:1011B00090911103892B31F485E591E0909311030F
:1011C00080931003E0915301F0915401309721F086
:1011D00085E591E09583848385E591E090935401C2
:1011E00080935301109265011092640187E191E0B0
:1011F000909356018093550181E080936601E091C0
:101200005501F09156010480F581E02D85E591E0CE
:10121000099585EA91E0909358018093570188E7FA
:1012200090E09093630180936201E0915501F09109
:1012300056010284F385E02D85E591E0099500973C
:1012400029F19C0140E050E060E472E48FE090E01E
:101250000E94EB0A722F632F0091BC031091BD0313
:101260002091BE033091BF03872F962FDA0180179C
:101270009107A207B30710F4D901C8018093BC03FA
:101280009093BD03A093BE03B093BF038FEF8093F1
:101290005B0190EB90935C0190EF90935D018093E4
:1012A000B903FF24FA94EE24E39480910F03833072
:1012B00009F49AC030F4813039F1823009F473C0F6
:1012C00006C0843009F4AFC0853009F4D7C0198254
:1012D0001A821B82CE0101960E94CC0610920E0348
:1012E00010920D03F092020180910F038F5F8093A3
:1012F0000F03E092010168EE73E080E090E00E944D
:101300006307E0920001DDC080930E0385EAA82EFA
:1013100081E0B82EC12CD12C80910101882379F075
:1013200080910E039091020120910D0329839A83ED
:101330008B83B501CE0101960E94F90307C0F50128
:101340001082F601EB55FE4F118212827090B903A4
:101350008091BC039091BD03A091BE03B091BF03E7
:10136000892B8A2B8B2B09F4BBC00E94A706009106
:101370001203109113032091140330911503DC0123
:10138000CB01801B910BA20BB30B0091BC031091FE
:10139000BD032091BE033091BF0380179107A207C0
:1013A000B307B0F29DC0E092000180910E039091CE
:1013B000020120910D032C839D838E83BE016F5FFC
:1013C0007F4FCE0104960E94F903CE0101960E9440
:1013D000CC068091010190910E03980F90930E031B
:1013E0009F3F09F06EC068C08093000180910201A8
:1013F00090910D039C838D83FE82BE016F5F7F4FB2
:10140000CE0104960E94F903CE0101960E94CC06FB
:101410008091010190910D03980F90930D039138E5
:1014200008F44FC049C0E092000180910201909100
:101430000D039C838D83FE82BE016F5F7F4FCE01C3
:1014400004960E94F903CE0101960E94CC06809179
:10145000010190910201981B90930201963F88F53B
:1014600090910F03890F80930F03F092010168EEB2
:1014700073E080E090E00E94630723C0E0920001E7
:101480008091020190910D039C838D83FE82BE01A9
:101490006F5F7F4FCE0104960E94F903CE01019643
:1014A0000E94CC068091010190910201981B9093BB
:1014B00002019F3F31F4880F90910F03890F8093B1
:1014C0000F036091000182E3689FB0011124072E91
:1014D000000C880B990B0E9463070E94E705E5CE7C
:1014E0000E94A70660931203709313038093140362
:1014F00090931503E091C403F091C503309759F020
:101500004091C0035091C1036091C2037091C30325
:10151000872D0995782E0091100310911103011564
:10152000110561F1D8011C966C901C978091BA034B
:101530009091BB038436910510F41C961C92D8013F
:10154000ED91FC9182809380472DB801CE010196E8
:101550000E949F04F80145855685628173819E0132
:101560002F5F3F4FC801F4010995D8011C966C927A
:101570001C9714960D911C911597D1CF0E94FD05D3
:1015800062E370E080E090E00E946307B3E0AB0E9E
:10159000B11CE3E0CE0ED11CF8E6CF16F1E0DF0679
:1015A00009F0BACE90910F038091010187CF97FB8C
:1015B000072E16F4009407D077FD09D00E94110B76
:1015C00007FC05D03EF4909581959F4F0895709546
:1015D00061957F4F0895052E97FB1EF400940E949D
:1015E000020B57FD07D00E94400B07FC03D04EF4BE
:1015F0000C94020B50954095309521953F4F4F4FDD
:101600005F4F089590958095709561957F4F8F4FAE
:101610009F4F08950E946D0BB7FF0895821B930B97
:101620000895AA1BBB1B51E107C0AA1FBB1FA61729
:10163000B70710F0A61BB70B881F991F5A95A9F77B
:1016400080959095BC01CD010895EE0FFF1F059088
:10165000F491E02D099481E090E0F8940C947C0BD7
:10166000DB018F939F930E94620BBF91AF91A29F6A
:10167000800D911DA39F900DB29F900D1124089590
:10168000A1E21A2EAA1BBB1BFD010DC0AA1FBB1F86
:10169000EE1FFF1FA217B307E407F50720F0A21BF8
:1016A000B30BE40BF50B661F771F881F991F1A9465
:1016B00069F760957095809590959B01AC01BD018F
:1016C000CF0108950E946D0BA59F900DB49F900DC2
:1016D000A49F800D911D11240895A29FB001B39F76
:1016E000C001A39F700D811D1124911DB29F700D2B
:0C16F000811D1124911D0895F894FFCF76
:1016FC000101FF000000004D064D064D063F013B69
:10170C0001380100000000F500B100AF003F013BC3
:10171C0001AC006301000000007E05FA04470525BA
:10172C00053905C505564D4450565F317C315F5621
:08173C004D4450560D0A000057
:00000001FF
